:100000000C943C000C943A100C943A100C943A1056
:100010000C943A100C943A100C943A100C943A1038
:100020000C943A100C943A100C943A100C943A1028
:100030000C943A100C943A100C943A100C943A1018
:100040000C943A100C943A100C943A100C943A1008
:100050000C943A10006000C68000C6012000208683
:100060000120013880013801490020E00149014F99
:1000700080014F01530020F111241FBECFE5D8E0CD
:10008000DEBFCDBFE4E5F0E040E017C0B591A5913B
:1000900035912591059107FD0CC095918591EF0152
:1000A000F92FE82F05900D92A217B307D9F7FE019B
:1000B00004C01D92A217B307E1F7E837F40731F740
:0C00C0000E9466000C94C10FF894FFCF62
:1000CC002F923F924F925F926F927F928F929F925C
:1000DC00AF92BF92CF92DF92EF92FF920F931F934A
:1000EC00CF93DF93CDB7DEB762970FB6F894DEBF30
:1000FC000FBECDBF80E181BB0E94B50F0E94E60F01
:10010C008AE090E00E9425089E878D87212C312C57
:10011C000F2EF5E46F2EF1E07F2EF02D0F2EF2E670
:10012C004F2EF0E05F2EF02D02C0212C312CF1016E
:10013C00EE0FFF1FEE0FFF1FEC5EFE4F6081718113
:10014C00828193810E94080C20E632E040E052E468
:10015C000E9433100E942B0DED85FE8580837183E8
:10016C006283AF0163E082E80E94B20DFFEF01EE03
:10017C0014E0F15000401040E1F700C0000060E0D6
:10018C008AE80E94080F64E68BE80E94080F2FEFA4
:10019C0031EE84E0215030408040E1F700C0000097
:1001AC0061EB80E80E94080F61E180E80E94080F73
:1001BC0061E280E80E94080F8FE890E00E94A80F8F
:1001CC0081FFFACF90E192BB84E990E00E94A80FE6
:1001DC00898385E990E00E94A80F0981402F50E0A7
:1001EC0060E070E0762F652F542F44274A015B01A5
:1001FC00880E911CA11CB11C74018FE19EE4019727
:10020C00F1F700C0000086E990E00E94A80F8983F6
:10021C0087E990E00E94A80F0981402F50E060E030
:10022C0070E0762F652F542F44278A019B01080F0D
:10023C00111D211D311D09871A872B873C87C98405
:10024C00DA848FE19EE40197F1F700C00000B4015D
:10025C00092C000C880B990B0E940A0C6D837E8371
:10026C008F839887E985FA85BF01FF0F880B990B5F
:10027C000E940A0C69837A838B839C839B01AC015B
:10028C000E9433106F87788B898B9A8B29813A81E6
:10029C004B815C81CA01B9010E94331069837A8356
:1002AC008B839C832D813E814F815885CA01B90176
:1002BC000E9433109B01AC0169817A818B819C81F6
:1002CC000E94EE0F0E944F078101000F111F000FBB
:1002DC00111F1A830983045D1E4F29813A81285FFF
:1002EC003E4F3A8329830E94F40F072E000C880B93
:1002FC00990B0E940A0CE981FA812081318142819B
:10030C0053810E9433109B01AC0165EA74ED88E6C1
:10031C0093E50E942F10F80160837183828393838D
:10032C00181419040CF064C01C141D040CF046C104
:10033C00C601B4010E941D0F072E000C880B990BEF
:10034C000E940A0C0E9401058101000F111F000F71
:10035C00111F1A830983005E1E4F21EE3EE245E613
:10036C0052E40E94331029813A8124503F4FF90105
:10037C0020813181428153810E94ED0FF80160830D
:10038C007183828393831AC1C601B7010E941D0F2A
:10039C00072E000C880B990B0E940A0C0E94010579
:1003AC008101000F111F000F111F1A830983005EBA
:1003BC001E4F21EE3EE245E652E40E94331020E04F
:1003CC0030E044EB53E40E94EE0F29813A81245033
:1003DC003F4FF90120813181428153810E94ED0F01
:1003EC00F8016083718382839383FF20BCF505C081
:1003FC00FF20A4F5C114D10489F1C601B7010E94F4
:10040C001D0F072E000C880B990B0E940A0C0E94E2
:10041C0001058101000F111F000F111F1A830983A1
:10042C00005E1E4F21EE3EE245E652E40E94331080
:10043C0020E030E044E353E40E94EE0F29813A813E
:10044C0024503F4FF90120813181428153810E9418
:10045C00ED0FF80160837183828393839F928F9257
:10046C007F926F925F924F920E94570FC2010E942F
:10047C00CC0FFFEF00E712E0F15000401040E1F725
:10048C0000C000008CE20E9427102A852F9339852A
:10049C003F937F926F925F924F920E94570FC201CF
:1004AC000E94CC0F8FEF90E7E2E081509040E0404B
:1004BC00E1F700C000008AE00E94271012BAFFEF9B
:1004CC0000E712E0F15000401040E1F700C00000DE
:1004DC000FB6F894DEBF0FBECDBF32E02316310449
:1004EC008CF48FEF281A380A61EA80E80E94080F12
:1004FC009FEFE0E7F2E09150E040F040E1F700C000
:10050C00000015CE20E030E040E752ECE0E2F1E0F4
:10051C0060817181828193810E94221088231CF555
:10052C0020E030E040E752EC60912401709125010D
:10053C0080912601909127010E94221088239CF41F
:10054C0020E030E040E752EC6091280170912901E5
:10055C0080912A0190912B010E94221088231CF477
:10056C00F0E1F2BB20C000E102BB1FEF24E33CE052
:10057C00115020403040E1F700C0000012BA8FEF5C
:10058C0094E3ECE081509040E040E1F700C00000C3
:10059C0002BBFFEF04E31CE0F15000401040E1F718
:1005AC0000C0000012BA0E94DA0DFC0120812A372B
:1005BC00D1F78854914009F0B8CD04C0DD200CF07F
:1005CC0017CFE2CE80E090E062960FB6F894DEBFD3
:1005DC000FBECDBFDF91CF911F910F91FF90EF9088
:1005EC00DF90CF90BF90AF909F908F907F906F9047
:0A05FC005F904F903F902F900895FC
:10060600AEE0B0E0E9E0F3E00C94A60E4C016B011D
:100616001A8219828FEF9FEF9C838B831E821D8225
:1006260058874F833A872987A12CB12CD6016D9024
:100636007C90F301EA0DFB1D808181110FC0D6016C
:10064600ED93FC938081853209F0D3C13F01BFEF62
:100656006B1A7B0AF6017182608219C0853279F3C2
:10066600B401082E000C990B0E94750B4FEFA41ACB
:10067600B40ADCCF8C32ACF08D32F9F489819A81E0
:1006860081609A8389833196D601ED93FC93D601D6
:10069600ED91FC9180818B3269F789819A81846022
:1006A600F0CF803221F489819A818860EACF833243
:1006B60051F489819A818061E4CF803321F4898164
:1006C6009A818260DECFB701C6010E945A0D9E83D1
:1006D6008D8397FF0BC029813A81B1E02B273A839E
:1006E60029839195819591099E838D8389819A812C
:1006F60080FF03C08D7F9A838983D601ED91FC919B
:10070600119780818E3249F43196ED93FC93B701AF
:10071600C6010E945A0D9C838B83C6010E94660EF9
:10072600582ED601ED91FC918081082E000C990B74
:100736000E94DE0F893609F443C084F4833609F437
:1007460002C134F4853209F427C18136E1F030C1A3
:100756008436B1F188360CF4D9C02AC1803709F441
:100766009AC03CF48E3609F4BCC08F3609F461C0D9
:100776001FC1853709F440C0883709F476C083372E
:1007860009F016C1F3C0652D70E0A701CE010B96E6
:100796000E940000892B09F426C1D601ED91FC9137
:1007A6001197CF0101968D939C932081AE01455FF1
:1007B6005F4FBE016F5F7F4FC4010E94000010C1F2
:1007C600652D70E0970141E050E0CE010B960E9446
:1007D600E809892B09F407C1F60180819181019608
:1007E60091838083AE01455F5F4FBE016F5F7F4F90
:1007F600C4010E949D08F4C0652D70E0970140E099
:1008060050E0CE010B960E94E809892B09F4EBC053
:10081600D6018D919C91119701968D939C93AE0173
:10082600455F5F4FBE016F5F7F4FC4010E94C10BE2
:10083600D7C0652D70E0970140E050E0CE010B96E1
:100846000E94E809892B09F4CEC0F60180819181C6
:10085600019691838083AE01455F5F4FBE016F5F56
:100866007F4FC4010E941C0BBBC0652D70E0970131
:1008760040E050E0CE010B960E94E809892B09F46E
:10088600B2C0D601ED91FC911197CF0101968D93DF
:100896009C9320811CC0970140E050E060EF70E01F
:1008A600CE010B960E94E809892B09F49CC0F6013B
:1008B600808191810196918380838B859C85892B8C
:1008C60029F420E030E04FE351E084C028E7AE0190
:1008D600455F5F4FBE016F5F7F4FC4010E94610697
:1008E6007FC0A501400F511F652D70E09701CE0115
:1008F6000B960E940000892B09F475C0D6018D91D4
:100906009C91119701968D939C9373C0652D70E011
:10091600A701CE010B960E940000892B09F463C043
:10092600D601ED91FC911197CF0101968D939C9381
:100936002081AE01455F5F4FBE016F5F7F4FC401EF
:100946000E9400004DC0B0E85B124DC0F6018081E8
:100956009181019691838083D701ED91FC91119746
:10096600CF0102968D939C93808120C0B0E85B12E4
:100976003AC0F60180819181019691838083D701E7
:10098600ED91FC911197CF0102968D939C93408136
:10099600518120E030E01EC0B0E85B1224C0F601B1
:1009A600208131812F5F3F4F318320838B870DC09C
:1009B60085E28B87D6016D927C921A8219821E82FD
:1009C6001D828FEF9FEF9C838B8321E030E0AE0189
:1009D600455F5F4FBE016F5F7F4FC4010E94880D68
:1009E6008A0D9B1D07C0F601808191810196918336
:0C09F6008083C5012E96EFE00C94C20E29
:100A02004F925F926F927F928F929F92AF92BF921C
:100A1200CF92DF92EF92FF921F93CF93DF936B01FE
:100A22007C01DC01CB018827B7FD83959927AA2792
:100A3200BB27182F46015701E894B7F88114910497
:100A420080E8A8068CE4B806A0F091E0891691042B
:100A520090E8A9069FE7B90608F020C120E030E03F
:100A620040E853E06AED7FE089EC9FE30E94EE0FDD
:100A720011C181149104E0EEAE06EEE3BE0658F415
:100A820081149104F0E8AF06F9E3BF0608F406C149
:100A9200CFEFDFEF89C0C701B6010E943C106B01A6
:100AA2007C018114910488E9A8068FE3B80608F056
:100AB20045C08114910490E3A9069FE3B90608F5A5
:100AC200A7019601C701B6010E94EE0F20E030E0B7
:100AD20040E85FE30E94ED0F4B015C0120E030E053
:100AE20040E050E4C701B6010E94EE0F9B01AC0149
:100AF200C501B4010E942F106B017C01C0E0D0E05F
:100B020053C020E030E040E85FE3C701B6010E9435
:100B1200ED0F4B015C0120E030E040E85FE3C701EC
:100B2200B6010E94EE0F9B01AC01C501B4010E9407
:100B32002F106B017C01C1E0D0E036C0811491041A
:100B4200ECE1AE06E0E4BE0618F520E030E040EC51
:100B52005FE3C701B6010E94ED0F4B015C0120E08B
:100B620030E040EC5FE3C701B6010E94331020E0A1
:100B720030E040E85FE30E94EE0F9B01AC01C5014B
:100B8200B4010E942F106B017C01C2E0D0E00CC0C6
:100B9200A701960160E070E080E89FEB0E942F10B1
:100BA2006B017C01C3E0D0E0A7019601C701B60149
:100BB2000E9433102B013C019B01AC010E943310B7
:100BC2004B015C0125E23CEA4CE75DE30E943310F5
:100BD2002DE035EF41E15EE30E94EE0FA5019401A5
:100BE2000E94331029EA3AEA4AEA5EE30E94EE0FD3
:100BF200A30192010E9433102B013C0127E432E150
:100C02004AED5DEBC501B4010E94331028E93AECCC
:100C12004CE45EE30E94ED0FA50194010E943310A3
:100C22009B01AC01CF3FFFEFDF0779F4C301B201B3
:100C32000E94EE0FA70196010E9433109B01AC01A6
:100C4200C701B6010E94ED0F2BC0CC0FDD1FCC0FE8
:100C5200DD1FCE0184519F4F5C01C301B2010E948E
:100C6200EE0FA70196010E943310C452DF4F288174
:100C720039814A815B810E94ED0FA70196010E9492
:100C8200ED0F9B01AC01F50160817181828193813D
:100C92000E94ED0F112321F0905802C0C701B60146
:100CA200DF91CF911F91FF90EF90DF90CF90BF9097
:100CB200AF909F908F907F906F905F904F9008952C
:100CC200AFE0B0E0E7E6F6E00C94A30E1C016B0186
:100CD2005A8349832B83FB0182819381848095808F
:100CE20000811181A680B78097FD02C00D7F02C0EE
:100CF20081E090E0E981FA814080518062807380D6
:100D02009801207133273D832C83740104FF08C0AE
:100D1200411451046104710419F032E0E31AF1083C
:100D2200F801E870FF27FF83EE8303FF03C0F1E0C1
:100D3200EF1AF108F6010084F185E02D3197FF8763
:100D4200EE87EA0DFB1D10829C012E193F0939879F
:100D52002887C801827099279B878A87EB818E2F0B
:100D6200EE0F990B9C01215431093D872C872E856A
:100D72003F852230310530F48C819D81892B09F029
:100D820042C05CC0411451046104710461F18E855A
:100D92009F8501979F878E87C2018F7099278A301E
:100DA200910514F4C09602C0895A9F4FEC85FD85C7
:100DB2007A9748F49C012062215631092A31310583
:100DC20010F40E94D50FEE85FF85EA0DFB1D80838E
:100DD200F1E0EF1AF10884E076946794579447940F
:100DE2008A95D1F7C4CF888599858E0D9F1D1816D7
:100DF20019066CF21E141F040CF0BECFEA85FB85A7
:100E0200EF2B29F6B9CFE981FA8180819181A28104
:100E1200B381892B8A2B8B2B89F0EE85FF85EA0D16
:100E2200FB1D31972B8120838E859F8502979F879B
:100E32008E87FC01EA0DFB1D80E38083EE81FF813A
:100E4200EF2B59F02E853F85215031093F872E87A0
:100E5200F901EA0DFB1D80E28083F6014085518590
:100E6200415051092E853F85421B530BB9016A0D32
:100E72007B1D9401C1010E94BB0C9C01F101808188
:100E8200918190FF06C0F6018281938182179307B8
:0C0E92000CF4C9012F96E2E10C94BF0E95
:100E9E00A4E0B0E0E5E5F7E00C94A50E8B019C0113
:100EAE00AC0140785F776B017C0140385F4761F49D
:100EBE00E894E7F8FF24C114D104E104F10409F029
:100ECE00ACC097FDAAC0AEC0E894F7F8C114D10427
:100EDE00E104F10409F4A6C097FF07C081E290E097
:100EEE00909361008093600098C0DC01CB0167E1B4
:100EFE00B595A795979587956A95D1F70097A10512
:100F0E00B105B9F480E090E0DC0127FD08C0000FC8
:100F1E00111F221F331F0196A11DB11DF6CF019780
:100F2E00A109B109B095A095909581959F4FAF4FAE
:100F3E00BF4F8F579109A109B1092F773327206829
:100F4E0080FF04C0000F111F221F331FAC01BD0113
:100F5E00759567955795479549835A836B837C831F
:100F6E00000F111F221F331F49E150E0812C912CDD
:100F7E005401B394C12CD12C760180E090E0DC01B9
:100F8E002C013D01480C591C6A1C7B1C04151505CF
:100F9E002605370574F0D301C201880D991DAA1DCF
:100FAE00BB1D0419150926093709C80CD91CEA1CE2
:100FBE00FB1C000F111F221F331FB694A79497948A
:100FCE00879441505109E1F60115110521053105AE
:100FDE0051F0970186010170112722273327C00E89
:100FEE00D11EE21EF31EF594E794D794C79451ECEC
:100FFE00F51A89819A81AB81BC8127E1880F991FEF
:10100E00AA1FBB1F2A95D1F78C0D9D1DAE1DBF1DAE
:10101E00482F392F2A2F5B2F09C040E030E020ECFB
:10102E005FE704C0462F372F282F592F642F732FB9
:0C103E00822F952F2496E0E10C94C10E47
:10104A00A2E0B0E0EBE2F8E00C94AD0E8C0180E097
:10105A0090E00115110509F460C0892BD1F0023026
:10106A00110558F00E3F8FEF180748F08CE090E01A
:10107A00909361008093600028C002E010E0C801EC
:10108A000E940000009709F04FC092E0E92EF12C6F
:10109A0004C080E0E82E80E0F82E8091490190910A
:1010AA004A0120914B0130914C01821B930B67013D
:1010BA00C00ED11E80179107F0F4DA82C982CE01E0
:1010CA0001960E94F40C009719F480E090E02CC07D
:1010DA002091490130914A018217930721F0909398
:1010EA004C0180934B0129813A81820F931F90937F
:1010FA004A0180934901E0914B01F0914C01CF01E3
:10110A00E114F10419F0029611830083CE0EDF1E5A
:10111A00D0924C01C0924B0107C0009709F0ADCFA5
:10112A007C0101E010E0B9CF2296E8E00C94C90EE8
:10113A00A2E0B0E0E3EAF8E00C94A30E3C016B01F4
:10114A00FB0122813381A480B580808191819A83B9
:10115A00898386809780FA0120803180428053807B
:10116A00B201A10157FE07C044275527BA01421907
:10117A0053096409750937FD03C08D7F9A838983F2
:10118A00950157FC05C0898182FD02C083FF02C018
:10119A0021503109CE0101967C010AE010E0C60116
:1011AA000E94B70A57FC03C0298122FF0AC001978F
:1011BA00F401E80FF91F57FC02C02BE209C02DE227
:1011CA0007C023FF06C00197F401E80FF91F20E2C8
:1011DA00208309811A81F6014085518541505109C0
:1011EA00481B590BB401680F791F9501C3010E946E
:1011FA00BB0C9C01F3018081918190FF06C0F6012E
:10120A0082819381821793070CF4C9012296E2E145
:04121A000C94BF0E63
:10121E0010C00E94021058F00E94FB0F40F029F4FB
:10122E005F3F29F00C94171051110C940A100C9476
:10123E0037100E94220E68F39923B1F3552391F3D0
:10124E00951B550BBB27AA2762177307840738F027
:10125E009F5F5F4F220F331F441FAA1FA9F335D084
:10126E000E2E3AF0E0E832D091505040E695001C38
:10127E00CAF72BD0FE2F29D0660F771F881FBB1FF2
:10128E00261737074807AB07B0E809F0BB0B802DD0
:10129E00BF01FF2793585F4F3AF09E3F510578F0FC
:1012AE000C9417100C940A105F3FE4F3983ED4F39D
:1012BE00869577956795B795F7959F5FC9F7880FD0
:1012CE00911D9695879597F90895E1E0660F771F22
:1012DE00881FBB1F621773078407BA0720F0621BB3
:0E12EE00730B840BBA0BEE1F88F7E095089582
:1012FC000FC00E94FB0F38F00E94021020F09523C3
:10130C0011F00C9417100C94371011240C940A1033
:10131C000E94220E70F3959FC1F3950F50E0551F5C
:10132C00629FF001729FBB27F00DB11D639FAA272E
:10133C00F00DB11DAA1F649F6627B00DA11D661F7D
:10134C00829F2227B00DA11D621F739FB00DA11D9E
:10135C00621F839FA00D611D221F749F3327A00D58
:10136C00611D231F849F600D211D822F762F6A2FF4
:10137C0011249F5750409AF0F1F088234AF0EE0F59
:10138C00FF1FBB1F661F771F881F91505040A9F786
:10139C009E3F510580F00C9417100C940A105F3F7F
:1013AC00E4F3983ED4F3869577956795B795F795C2
:1013BC00E7959F5FC1F7FE2B880F911D969587953A
:0413CC0097F90895F0
:1013D000CF93DF93DC01F90168387105F1F05CF41B
:1013E0006138710561F164387105A1F160387105EA
:1013F00009F051C02FC0603C710509F441C0603F45
:101400007105F1F1603A710509F045C0C081D181E3
:10141000CE0102969183808325C0C081D181CE0107
:10142000029691838083452B39F04881042E000C6D
:10143000550B660B770B1CC0488150E029C0C0815A
:10144000D181CE01049691838083488159816A813C
:101450007B810EC0C081D181CE01029691838083B1
:10146000452BA1F048815981052E000C660B770BA6
:101470004D935D936D937C93139781E090E00DC045
:10148000C081D181CE0102969183808348815981A8
:1014900060E070E0EDCF80E090E0DF91CF910895C3
:1014A00011C00E94FB0F38F00E94021020F039F4A6
:1014B0009F3F19F426F40C9437100EF4E095E7FBE7
:1014C0000C941710E92F0E94220E58F3BA176207E6
:1014D00073078407950720F079F4A6F50C9409109A
:1014E0000EF4E0950B2EBA2FA02D0B01B90190013F
:1014F0000C01CA01A0011124FF27591B99F0593F83
:1015000050F4503E68F11A16F040A22F232F342FCA
:101510004427585FF3CF469537952795A795F04018
:101520005395C9F77EF41F16BA0B620B730B840B2D
:10153000BAF09150A1F0FF0FBB1F661F771F881FE5
:10154000C2F70EC0BA0F621F731F841F48F487953D
:1015500077956795B795F7959E3F08F0B0CF93952F
:0E156000880F08F09927EE0F9795879508954C
:10156E00A0E0B0E0EDEBFAE00C94A50EDC01280152
:10157E001696AD90BC901797F701808191811296C7
:10158E00ED91FC9113971896CD91DC9119972197B7
:10159E00F7FF02C0E1E0F0E0CA0DDB1D1882690121
:1015AE00A1E0B0E08F01021B130B4C01F2E08F2281
:1015BE009924052C000C66087708CE018A199B0920
:1015CE00CA15DB0519F1411551056105710589F043
:1015DE00CB01BA01A30192010E94440ECA01A62FAB
:1015EE00B72F605D6A9341E0C41AD108A901BC010E
:1015FE00E4CF98012C0D3D1D121613064CF31C144E
:10160E001D0434F48114910419F702C080E090E0B7
:10161E00AB2B31F4F701208131812F7E3183208372
:0A162E00CDB7DEB7E0E10C94C10E69
:10163800A2E0B0E0E2E2FBE00C94A70E4C016B01E3
:10164800FB012281338164807580808191819A8336
:101658008983A680B78037FD03C08D7F9A838983ED
:10166800FA014081518162817381CE0101967C012A
:1016780008E010E09301C6010E94B70A298124FFFF
:1016880006C00197F501E80FF91F20E3208329819F
:1016980023FF06C00197F501E80FF91F20E2208318
:1016A80009811A81F6014085518541505109481B2D
:1016B800590BB501680F791F9301C4010E94BB0C37
:1016C8009C01F4018081918190FF06C0F60182811E
:1016D8009381821793070CF4C9012296EEE00C94CB
:0216E800C30E2F
:1016EA000F931F93CF93DF93DB01109719F48FEFBA
:1016FA009FEF3DC02D913C91119730FF25C0169662
:10170A004D915C91179714962D913C91159742171C
:10171A00530778F41296ED91FC91139780831296F1
:10172A002D913C9113972F5F3F4F13963C932E9325
:10173A00129716962D913C9117972F5F3F4F179648
:10174A003C932E93169713C01C96ED91FC911D970E
:10175A00309769F2EB01092F182F0995892B39F671
:10176A008E819F8101969F838E83812F902FDF9197
:08177A00CF911F910F9108951A
:10178200A2E0B0E0E7ECFBE00C94A70E5C016B0179
:10179200FB012281338184809580808191819A83AB
:1017A20089836680778037FD03C08D7F9A83898322
:1017B200FA014081518162817381CE0101967C01DF
:1017C2000AE010E09401C6010E94B70A09811A8159
:1017D200F6014085518541505109481B590BB3010F
:1017E200680F791F9401C5010E94BB0C9C01F50191
:1017F2008081918190FF06C0F601828193818217D8
:0E18020093070CF4C9012296EEE00C94C30E7D
:10181000E89409C097FB3EF490958095709561958A
:101820007F4F8F4F9F4F9923A9F0F92F96E9BB2740
:101830009395F695879577956795B795F111F8CFBC
:10184000FAF4BB0F11F460FF1BC06F5F7F4F8F4F27
:101850009F4F16C0882311F096E911C0772321F01D
:101860009EE8872F762F05C0662371F096E8862FB5
:1018700070E060E02AF09A95660F771F881FDAF70C
:0A188000880F9695879597F9089553
:10188A00A2E8B0E0EBE4FCE00C94A90E5C014A018A
:10189A00CF57DF4F79836883C158D040C12CD12CF0
:1018AA00CF57DF4FE881F981C158D0408081882322
:1018BA00E9F07401860120E830E0AE014F5F5F4F26
:1018CA00BE016F577F4FC5010E9403038C0D9D1DFA
:1018DA008C159D054CF48FE490E090936100809301
:1018EA0060008FEF9FEF03C06C01DACFC601CE57BD
:0818FA00DF4FECE00C94C50E79
:10190200A0E1B0E0E7E8FCE00C94AF0EFB01BA0105
:10191200AE014F5F5F4F7A0140E1D7011D924A95B8
:10192200E9F742E051E05A8349839C838B83F7FFB6
:1019320009C08FE490E090936100809360008FEF84
:101942009FEF14C0A9018C013197FE83ED83C7017B
:101952000E94DA0E4F8158852D813E81421753072E
:1019620008F49A01F801E20FF31F10826096E6E094
:041972000C94CB0EF8
:10197600A0E0B0E0E1ECFCE00C94A90E6C015B0188
:101986007A01E901480181E08822992400FD03C01B
:101996004217530750F0A701B501C6010E94860EF3
:1019A600EC16FD0610F0C70117C08E010E191F09AF
:1019B6000115110541F0B60180E290E00E94750B19
:1019C60001501109F5CF8114910429F4A701B5013D
:1019D600C6010E94860ECE01CDB7DEB7ECE00C94B0
:0219E600C50E2C
:1019E800FC014081518180914D0190914E01892BDC
:1019F80041F4809151019091520190934E0180934E
:101A08004D0180914F0190915001009719F48DB7C5
:101A18009EB7809720914D0130914E0128173907C4
:101A280048F08CE090E0909361008093600080E043
:101A380090E00895821B930B8417950790F3420F4B
:0E1A4800531F50934E0140934D01C901089564
:101A56000E942A0E88F09F5798F0B92F9927B75100
:101A6600B0F0E1F0660F771F881F991F1AF0BA953C
:101A7600C9F714C0B13091F00E940910B1E0089581
:101A86000C940910672F782F8827B85F39F0B93F73
:101A9600CCF3869577956795B395D9F73EF49095EF
:0E1AA6008095709561957F4F8F4F9F4F0895EB
:101AB400DC01ED91FC91119780818A3221F080E064
:101AC40090E03AE00EC03196ED93FC93DB01ED918A
:101AD400FC911197CF0102968D939C938081918103
:101AE4000895ED91FC911197208120532A3068F4D8
:101AF400389FA001399F500D1124CA01820F911DF6
:0C1B040031961196FC93EE93ECCF0895FF
:101B1000A0E0B0E0EEE8FDE00C94AB0E7C01FB0130
:101B2000EA01C901A280B380C480D58000811181FF
:101B3000209711F4C8E3D1E0009719F4CE010E9478
:101B40009A0FB7FC04C0A816B90608F4C50196019F
:101B5000AC01BE01C7010E94BB0CCDB7DEB7EAE005
:041B60000C94C70E0C
:101B6400FF920F931F93CF93DF93F62E8A010E9467
:101B74008A0F0E947A0F8AE10E94F20E80EA0E9484
:101B8400450F8F2D0E94450FFF2049F0E8010F0DEE
:101B9400111D89910E94450FC017D107D1F784E91F
:101BA40086BF81E0DF91CF911F910F91FF9008953F
:101BB400EF92FF920F931F93CF93DF938EE190E008
:101BC4000E9425087C018C01C0E0D0E00E941D1019
:101BD4008D3039F0F80181938F012196CE31D105F2
:101BE400A9F7CE0DDF1D1882C701DF91CF911F9198
:081BF4000F91FF90EF9008959E
:101BFC00990F0008550FAA0BE0E8FEEF1616170612
:101C0C00E807F907C0F012161306E407F50798F079
:101C1C00621B730B840B950B39F40A2661F0232B92
:101C2C00242B252B21F408950A2609F4A140A6950E
:081C3C008FEF811D811D089549
:101C440057FD9058440F551F59F05F3F71F0479569
:101C5400880F97FB991F61F09F3F79F0879508954E
:101C6400121613061406551FF2CF4695F1DF08C06D
:101C7400161617061806991FF1CF8695710561058A
:041C84000894089523
:101C8800A1E21A2EAA1BBB1BFD010DC0AA1FBB1F78
:101C9800EE1FFF1FA217B307E407F50720F0A21BEA
:101CA800B30BE40BF50B661F771F881F991F1A9457
:101CB80069F760957095809590959B01AC01BD0181
:041CC800CF010895AB
:101CCC00CF93DF93EC0190E0E92FF0E0EE0FFF1FD4
:101CDC00EA53FF4F8081811102C081810EC0A8811F
:101CEC00B9812C91821305C091811196B983A88377
:101CFC0001C09F5F9B3040F3892FDF91CF910895F6
:101D0C00A0E0B0E0ECE8FEE00C94AD0E6C01EB0151
:101D1C008A017B01E40EF51ECE15DF0541F0899199
:101D2C00B601082E000C990B0E94750BF5CFC8015B
:0A1D3C00CDB7DEB7E8E00C94C90E45
:101D46002F923F924F925F926F927F928F929F92C5
:101D5600AF92BF92CF92DF92EF92FF920F931F93B3
:101D6600CF93DF93CDB7DEB7CA1BDB0B0FB6F89464
:081D7600DEBF0FBECDBF0994D2
:101D7E002A88398848885F846E847D848C849B840D
:101D8E00AA84B984C884DF80EE80FD800C811B811B
:101D9E00AA81B981CE0FD11D0FB6F894DEBF0FBE4A
:061DAE00CDBFED01089518
:101DB400A2E0B0E0E0EEFEE00C94B10E8C015A8398
:101DC4004983AE014F5F5F4F0E94450CF8012081AB
:101DD40024FF02C08FEF9FEF2296E4E00C94CD0E17
:101DE400CF93C82F0E942B10C3B984E886BF0E94EA
:101DF4002B1081B1887F883121F481B1887F8034B0
:0C1E040011F081B101C08FEFCF91089563
:101E1000CF93DF93D82FC62F0E947A0F8AE10E94BA
:101E2000F20E8D2F0E94450F8C2F0E94450F84E9E2
:0A1E300086BF81E0DF91CF91089595
:101E3A0097FB072E16F4009407D077FD09D00E946D
:101E4A00310F07FC05D03EF4909581959F4F089578
:081E5A00709561957F4F08951A
:101E6200AA1BBB1B51E107C0AA1FBB1FA617B707BE
:101E720010F0A61BB70B881F991F5A95A9F78095DA
:081E82009095BC01CD0108950B
:101E8A00CF93C82F0E942B10C3B984E886BF0E9443
:101E9A002B1081B1887F883211F081B101C08FEF98
:041EAA00CF91089537
:101EAE00A0E0B0E0EDE5FFE00C94B30EAE01475FAD
:101EBE005F4F6F8178858D819E810E941010E2E0C8
:041ECE000C94CF0E93
:101ED200092E0394000C11F4882352F0BB0F40F436
:101EE200BF2B11F460FF04C06F5F7F4F8F4F9F4F76
:021EF200089551
:101EF40084EA86BF0E942B1081B1887F883021F448
:101F040081B1887F803111F081B108958FEF0895F8
:101F1400CF93C82F0E947A0F8AE10E94F20E80EBC1
:101F24000E94450F8C2F0E94450F81E0CF910895A8
:101F3400FC01AF014F5F5F4F2081222311F0FA01B2
:0C1F4400F8CF9F01281B390BC90108953C
:101F50000E948A0F0E947A0F8BE10E94F20E84E8A1
:0A1F600086BF0E942B1083B1089584
:101F6A008AB188618AB980B5866880BD83E389B9F8
:081F7A0010BC81E090E0089525
:101F8200EC010E9441100E944010CE010E944210BA
:061F9200CE010E943E108A
:101F9800FC015D9BFECF81918CB980818111F9CFC5
:021FA80008959A
:101FAA009C01215631092A31310510F48F75992780
:021FBA00089588
:101FBC009C01215431092A31310508F480620895BD
:0E1FCC008AE080B984E086BF81E090E008954D
:0E1FDA005058BB27AA270E94500A0C94690F8A
:0E1FE8000E942B0D6894B1110C940A100895FC
:0E1FF60000240A941616170618060906089508
:0E20040000240A941216130614060506089509
:0E201200E894BB2766277727CB0197F908953E
:0E2020009A01AB016FEF7FE70E94810C0895DB
:0C202E0097F99F6780E870E060E008957B
:0A203A005F9BFECF8CB190E008958B
:0A2044000E94FE0D08F481E00895EB
:08204E005D9BFECF8CB90895E3
:0820560006B607FEFDCF089558
:08205E000E940F090C94690FA8
:082066000E947E090C94690F31
:06206E009FEF80EC0895D5
:042074000C940000C8
:042078009F770895B1
:04207C000E9464005A
:022080000895C1
:022082000895BF
:022084000895BD
:1020860068076C094C836A9074A07AC000806888DF
:0620960000846C82008151
:10209C006937AC3168212233B40F14336821A23371
:1020AC003863ED3EDA0F493F5E987B3FDA0FC93F4C
:0C20BC00CB958843F9928E4394798943B8
:0C20C800541C1D464B421E46C0C31C4663
:0C20D400882C000000320000783700006B
:0720E000286E756C6C2900ED
:0620E700286E696C29005F
:0420ED002564000066
:0220F1000000ED
:0220F300530197
:00000001FF
